:1000000075C100008FC100008DC100008BC10000D0
:1000100089C1000087C1000085C1000083C10000C4
:1000200081C1000014C200000C945B0C7BC1000075
:1000300079C1000077C1000075C1000073C10000E4
:1000400071C1000074C30000AFC5000047C60000C6
:1000500069C100004EC3000031C2000063C100004E
:1000600061C100000C94AF0A0C94DD0A5BC1000072
:1000700059C1000057C1000055C1000053C1000024
:1000800051C100004FC100004DC100004BC1000034
:1000900049C1000047C1000045C1000043C1000044
:1000A00041C100003FC100003DC100000307FF0641
:1000B00056071C07F806FC06A30773078707880E78
:1000C000AA0E900FAA0E900FEC0E0F0F900F610F5B
:1000D000730F07634236B79BD8A71A39685618AE14
:1000E000BAAB558C1D3CB7CC5763BD6DEDFD753E6D
:1000F000F6177231BF000000803F08000000BE927A
:100100002449123EABAAAA2ABECDCCCC4C3E00005C
:100110000080BEABAAAAAA3E00000000BF000000FB
:10012000803F0000000000084178D3BB4387D11313
:100130003D190E3CC3BD4282AD2B3E68EC8276BEBB
:10014000D98FE1A93E4C80EFFFBE01C4FF7F3F0085
:1001500000000000200342007200650077004D009F
:100160006F006E00690074006F007200200055007F
:100170005300420000002203440069006700690048
:10018000740061006C00200048006F006D00650085
:100190006200720065007700000004030904090290
:1001A0002200010100C03209040000010300000028
:1001B0000921110100012220000705810308000523
:1001C0001201100100000008D016AA070000010269
:1001D00000010600FF0901A1010902150025FF75B4
:1001E00008950881020903150025FF7508950891F7
:1001F00002C000407A10F35A00A0724E1809001095
:10020000A5D4E80000E87648170000E40B5402008B
:1002100000CA9A3B000000E1F505000080969800B6
:10022000000040420F000000A086010000001027DF
:1002300000000000E803000000006400000000006F
:100240000A00000000000100000000002C76D888A1
:10025000DC674F0823DFC1DFAE59E1B1B796E5E3B4
:10026000E453C63AE651997696E8E6C28426EB89CD
:100270008C9B62ED407C6FFCEFBC9C9F40F2BAA56A
:100280006FA5F490055A2AF75C936B6CF9676DC102
:100290001BFCE0E40D47FEF520E6B500D0ED902E06
:1002A0000300943577050080841E080000204E0A64
:1002B000000000C80C333333330F986E12831141A2
:1002C000EF8D2114893BE65516CFFEE6DB18D1846D
:1002D0004B381BF77C1D901DA4BBE4242032847294
:1002E0005E228100C9F124ECA1E53D2711241FBE47
:1002F000CFEFDAE0DEBFCDBF11E0A0E0B1E0E2EF8A
:10030000FFE202C005900D92A039B107D9F722E0B3
:10031000A0E9B1E001C01D92A133B207E1F7F5D326
:100320000C94F7176DCE80E0EFE3FCE93197F1F71D
:1003300000C000001F9B03C0843111F403C080E0A3
:100340008F5FF2CF8FE39CE90197F1F700C00000C7
:10035000089590E080E80FB6F89480936100909340
:1003600061000FBE85BF85BF84B7877F84BF88E1EA
:100370000FB6F89480936000109260000FBE259A2B
:10038000249A859A849A809A27988198549A509AA8
:10039000519A8D9A8F9A889A8C9A2FEF87E893E1D9
:1003A000215080409040E1F700C0000026E040E38B
:1003B00050E061E370E08FE290E0B8D60E94FC0963
:1003C000EAE7F0E0808184608083808182608083BE
:1003D000808181608083ACE7B0E08C9180648C93F5
:1003E0008C9180628C938C9181608C9380818068E9
:1003F0008083808180648083089585B5816085BD18
:1004000085B5846085BDE1E8F0E08081816080830E
:10041000808184608083EFE6F0E080818260808369
:10042000808184608083E8E6F0E080818160808361
:10043000EBE6F0E0808180688083EEE6F0E080818A
:1004400084608083789481E08093FC0108951F92FA
:100450000F920FB60F9211242F938F939F931F9992
:1004600005C010921A021092190220C08091190240
:1004700090911A02833221E0920720F081E080936C
:10048000DE010DC0892B91F08091FF01882321F0BE
:1004900081E08093020203C081E08093EC018091AF
:1004A00068008E7F809368001092F1019F918F9178
:1004B0002F910F900FBE0F901F9018951F920F92C3
:1004C0000FB60F9211242F938F939F931F990AC0F9
:1004D0008091190290911A02019690931A028093CA
:1004E000190204C010921A02109219028091F101AF
:1004F00091E0980F9093F101833029F48091680086
:100500008160809368008091190290911A02833271
:10051000914020F085B190E2892785B99F918F9114
:100520002F910F900FBE0F901F901895CF93C82F4B
:100530001092EC011092040261E080E090E00E94D1
:1005400080158091EA019091EB01C11102C00097E2
:1005500071F440E050E06FEF7FEF6FD78091EA01D8
:100560009091EB0104969093EB018093EA0121E0D6
:100570002093060220931C028091840090918500B4
:10058000875F924C90938900809388002093FF01AD
:100590001092E5011092E4011092F5011092F4011D
:1005A000CF9108951092020260E080E090E00E94F6
:1005B00080151092FF012D9808951092DE01F2DF50
:1005C0002D9A1BD760E086E090E00E948015109283
:1005D000E6011092EB011092EA011092F5011092DF
:1005E000F4012D9881E08093FB010895CF93DF9370
:1005F000C0E0D0E0CE014BD76F3F7F4F11F40196A2
:1006000039F02496C11580E1D807A1F7C0E0D0E009
:10061000CE01DF91CF9108950F931F93CF93DF9376
:100620001F92CDB7DEB786E090E00E9478158F3F2D
:10063000F1F460E080E090E00E94801560E086E0E8
:1006400090E00E94801564E188E090E00E948015AF
:1006500062E38AE090E00E94801560E08CE090E028
:100660000E94801560E28EE090E00E948015BEDF5F
:100670009093EB018093EA0186E090E00E94781568
:100680008093E60188E090E00E947815809308024C
:100690008AE090E00E9478158093F7018EE090E068
:1006A0000E94781590E0182F00271093E201009324
:1006B000E1018CE090E00E947815080F111D109365
:1006C000E2010093E10180E090E00E947815813022
:1006D00051F41F9906C0898326DE89818093040224
:1006E00002C08093EC010F90DF91CF911F910F9189
:1006F00008951F920F920FB60F9211248F939F931C
:100700008091E30191E0980F9093E301843141F4EB
:100710002D981092E30180916E008D7F80936E0082
:100720009F918F910F900FBE0F901F9018951F9261
:100730000F920FB60F9211248F939F938091880090
:1007400090918900875F924C9093890080938800F4
:100750008091FF01882319F081E08093060281E0F7
:1007600080931C029F918F910F900FBE0F901F904E
:100770001895EF92FF920F931F93CF93DF93CDB70E
:10078000DEB76C970FB6F894DEBF0FBECDBF609199
:10079000EF017091F00180E090E00E94361220E0BD
:1007A00030E040E85DE30E94E8129E012F5F3F4F7A
:1007B0007901890124E041E00E941815F7010190B8
:1007C0000020E9F78E2F8E198D5C4AE0BE016F5E26
:1007D0007F4F992787FD90950E94551580E191E004
:1007E00044D73FEF83ED90E3315080409040E1F7F4
:1007F00000C0000088E191E038D72FEF33EC89E0AA
:10080000215030408040E1F700C0000085E291E0D7
:100810002CD79FEF23ED30E3915020403040E1F79B
:1008200000C000008DE491E020D7CE0141961DD795
:100830008BE491E01AD78FEF93EC29E08150904040
:100840002040E1F700C0000089E591E00ED78AE67C
:1008500091E00BD78BE791E008D7CE01019605D741
:1008600084E891E002D76C960FB6F894DEBF0FBE15
:10087000CDBFDF91CF911F910F91FF90EF90089521
:100880001092F60187E08093E7018091EF0190914B
:10089000F00190931B028093FA018091FD019091E9
:1008A000FE01909303028093ED01809107028093F3
:1008B000E0018091F9018093010281E08093FB01C6
:1008C0001092FE011092FD0108952F923F924F92D7
:1008D0005F926F927F928F929F92AF92BF92CF92D0
:1008E000DF92EF92FF920F931F93CF93DF93CDB7D9
:1008F000DEB7A0970FB6F894DEBF0FBECDBF80E085
:1009000098E09093EB018093EA016091E6016F5FBC
:100910006093E60186E090E00E948015412C512C06
:100920006E0121E2C20ED11C8E010F5F1F4F7201BA
:10093000EE0CFF1CC701ABD54B015C01C70104964F
:10094000A6D5FC018114910421F42FEFA216B20662
:1009500021F0672B41F4319631F4F80111821082B5
:100960008FEF9FEF05C0F801918280828A0D9B1D59
:1009700093838283F8E0EF0EF11C0C5F1F4F0C1580
:100980001D05C1F6BE016F5F7F4FC201AFD520E2EA
:10099000420E511C411488E0580631F6FE01319692
:1009A0008FEF9FEF91838083938382833496EC153E
:1009B000FD05C1F700E018E0BE016F5F7F4FC80181
:1009C00095D5005E1F4F011590E11907A9F7A09674
:1009D0000FB6F894DEBF0FBECDBFDF91CF911F9150
:1009E0000F91FF90EF90DF90CF90BF90AF909F90CE
:1009F0008F907F906F905F904F903F902F900895D1
:100A00008F929F92AF92BF92CF92DF92EF92FF921E
:100A1000CF93DF932D9A80916E00826080936E0059
:100A200010920602809105028F5F809305028F303D
:100A300019F4109205029DDEC091F401D091F501E8
:100A40006091E60170E080E090E00E9436129B0128
:100A5000AC0160E070E080E090E40E944B134B0139
:100A60005C01BE0180E090E00E9436126B017C01C7
:100A700020E030E040E85FE3C501B4010E94CD1101
:100A80009B01AC01C701B6010E94321287FF06C06C
:100A90002196D093F501C093F4012CC01092F5017A
:100AA0001092F4014091EF015091F0016091E40146
:100AB0007091E5018091EA019091EB01BED48091A3
:100AC000EA019091EB0104969093EB018093EA0187
:100AD0001092E5011092E4018115904159F4DF91E3
:100AE000CF91FF90EF90DF90CF90BF90AF909F900D
:100AF0008F90EBCEDF91CF91FF90EF90DF90CF9072
:100B0000BF90AF909F908F9008952D9A2C9A21DCE2
:100B10002FEF83EC99E0215080409040E1F700C036
:100B200000007ADD87E690E072D5ADD666DC2D98C0
:100B30002C9880E091E00E9409110E94AA0F8091F8
:100B40000602882311F05CDFF4CF8091F601882340
:100B500011F096DEEECF8091EC01882311F081E058
:100B600005C080910402882319F080E0DFDCE1CF2A
:100B700080910202882311F015DDDBCF80911C02E9
:100B8000882361F07ED39093F0018093EF0160E0C1
:100B900070E081E058D310921C02CBCF8091DE012F
:100BA000882339F20ADDC5CF1F920F920FB60F923C
:100BB00011242F933F938F939F9380918A0090915C
:100BC0008B0086579F4F90938B0080938A00809173
:100BD00079008093F90180917A00806480937A0093
:100BE0008091FC01882309F45DC08091E8018111A6
:100BF00009C09091F90180910802981718F481E0DA
:100C00008093E8018091E801882309F44BC080912A
:100C1000E901811109C09091F9018091F7018917CB
:100C200018F481E08093E9018091E9018823D1F1F2
:100C30008091F3018823F1F18091F301882391F1F0
:100C40008091E4019091E50101969093E5018093F4
:100C5000E4018091FD019091FE0101969093FE01C7
:100C60008093FD011092E8011092E9011092F301C6
:100C70001092FC012C9A81E08093070280918400FD
:100C8000909185002091E1013091E201820F931F44
:100C900090938D0080938C00B39A80916F00886050
:100CA00080936F008091DD01882379F081E080934B
:100CB000F6010BC09091F90180910802981708F095
:100CC000BBCF81E08093F301B7CF9F918F913F918C
:100CD0002F910F900FBE0F901F9018951F920F929B
:100CE0000FB60F9211248F93EF93FF932C981092CD
:100CF000070281E08093FC01EFE6F0E08081877FCE
:100D00008083FF91EF918F910F900FBE0F901F90F6
:100D1000189508951092DD01089580E091E00E94F9
:100D2000F610E2EEF0E0808184608083089580E038
:100D300091E00C94C60F80910E0190910F010097E5
:100D400029F0019790930F0180930E0108950F935E
:100D50001F93F9018091FB01882309F188E090E05D
:100D6000D8018D939C938091E701808380911B0231
:100D700081838091FA018283809103028383809131
:100D8000ED0184838091E001858380910102868357
:100D90008091DF0187831092FB0181E001C080E038
:100DA0001F910F910895CF93F90180818093E701FE
:100DB000618160931B0292819093FA0193819093D9
:100DC000030294819093ED0195819093E0019681C7
:100DD0009093010297819093DF0190E0FC0131979D
:100DE000E930F10508F0AFC0EA5AFF4F0C94C71183
:100DF00081E08093DD01A5C01092DD01A1C081E0FA
:100E00008093DE019EC02D9A80916E008260809357
:100E10006E0080911B0290E0982F88272091FA01A4
:100E2000820F911D34D3709303026093ED01909370
:100E3000E0018093010284C0C091DD011092DD01C8
:100E40008AE090E00E94801580911B028093F70158
:100E50006091FA0188E090E00E9480158091FA018B
:100E600080930802609103028EE090E00E9480155A
:100E7000809103021092E1018093E2016091ED0103
:100E80008CE090E00E9480152091ED018091E101BD
:100E90009091E201820F911D9093E2018093E10114
:100EA00081E08093FB01C093DD014DC01092DD0114
:100EB0008091F70180931B02809108028093FA01D0
:100EC0008091E1019091E201909303028093ED0102
:100ED0008091E6018093E0018091EA019091EB011D
:100EE000909301022BC091E090931B0284E08093C9
:100EF000FA0183E6809303028093ED018093E00181
:100F0000809301028093DF019093FB011CC08091CC
:100F1000E60180931B028091F4019091F50190937A
:100F2000FA01809303028091EA019091EB01909382
:100F3000ED018093E00183E6809301028093DF015D
:100F400081E08093FB01CF910895292F332723302F
:100F50003105B9F05CF42130310569F122303105F9
:100F600079F582E290E02EE931E02EC021323105A0
:100F7000E9F02232310521F580E290E022ED31E006
:100F800023C099278130910541F08230910541F0CD
:100F9000892BB1F4EAE9F1E005C0E6E7F1E002C02F
:100FA000E4E5F1E0849190E09F010EC089E090E0DB
:100FB00020EB31E009C082E190E020EC31E004C098
:100FC00080E090E020E030E0FA0131832083089552
:100FD000E0912002F0912102908180911F028923EB
:100FE0000895E0911D02F0911E02808190911F02F0
:100FF000892B8083E0912202F091230280819091DD
:101000001F02892B808308951F93CF93DF931F9234
:10101000CDB7DEB71FB7F894E0912202F09123021A
:10102000908120911F02922B90839AE09A95F1F77C
:1010300000C0882351F0E0912202F0912302208128
:1010400090911F02909592239083E5E4EA95F1F741
:101050000000E0912002F0912102908120911F0276
:10106000922309F480E0F5EEFA95F1F70000E091A3
:101070002202F0912302208190911F0290959223E9
:101080009083662319F08983ACDF89811FBF9AE6BC
:101090009A95F1F700C00F90DF91CF911F910895BD
:1010A000E0911D02F0911E02908180911F028095B7
:1010B00089238083E0912202F09123028081909124
:1010C0001F02892B80838FE797E00197F1F700C01B
:1010D00000009FB7F894E0912202F0912302208152
:1010E00080911F02809582238083EFEFF0E031979B
:1010F000F1F700C00000E0912002F0912102208170
:1011000080911F029FBFEFE7F6E03197F1F700C033
:101110000000E0912002F0912102908130911F02A5
:10112000932311F08223089581E0089550932302C0
:101130004093220270931E0260931D02909321023D
:101140008093200281E001C0880F2A95EAF78093FE
:101150001F02A6CF60E0817057CFCF93DF93C82FD7
:10116000D8E08C2F8170F6DFC6958111C068D15010
:10117000C1F78C2FDF91CF910895CF93DF93C82FC4
:10118000D8E08C2F8170D13011F060E001C061E0B7
:101190003BDFC6958111C068D15099F78C2FDF9144
:1011A000CF910895EF92FF920F931F93CF93DF9308
:1011B000F82EEB01E42E74DF209759F085E5CDDFA2
:1011C0008E01085F1F4F8991C8DFC017D107D9F77B
:1011D00002C08CECC2DF8F2DEE2039F0DF91CF9171
:1011E0001F910F91FF90EF90C8CFDF91CF911F918A
:1011F0000F91FF90EF90B1CF8FEFAFCF40E0D2CF04
:1012000041E0D0CFFF920F931F93CF93DF93062F30
:10121000F72EBC018EEBF2DFC02FDF2D19E0ECDFE3
:1012200089931150E1F769E070E0802F9F2D4ED037
:10123000882311F083E001C080E0DF91CF911F91FE
:101240000F91FF9008951F93CF93DF9300D0CDB7F8
:10125000DEB7182F69837A8323DFBADE69817A814A
:10126000882341F084E4113011F0CADF01C0C6DFE9
:1012700080E001C082E00F900F90DF91CF911F912D
:101280000895CF93DF93CDB7DEB729970FB6F894C3
:10129000DEBF0FBECDBFBE016F5F7F4F80E090E02D
:1012A000B1DF811108C08A8190E0982F88272981B9
:1012B000820F911D02C080E090E029960FB6F8944D
:1012C000DEBF0FBECDBFDF91CF910895FC01680F47
:1012D000791F80E048E1E617F70781F0219198E057
:1012E000322F3827532F517030FD84278695513087
:1012F00009F480682695915099F7EDCF08951092E2
:10130000B90088E48093B800089594EA9093BC00F3
:101310009091BC0097FFFCCF9091B900987F9830D6
:1013200021F0903111F081E008958093BB0084E8B2
:101330008093BC008091BC0087FFFCCF8091B900F6
:10134000887F883111F0803471F780E0089524EAB5
:1013500034E844E92093BC009091BC0097FFFCCF97
:101360009091B900987F983011F0903199F780935F
:10137000BB003093BC009091BC0097FFFCCF9091D4
:10138000B900987F903211F0983539F44093BC0041
:101390009091BC0094FDFCCFDDCF0895B6CF84E9D9
:1013A0008093BC008091BC0084FDFCCF08958093A5
:1013B000BB0084E88093BC008091BC0087FFFCCF19
:1013C0009091B900987F81E0983209F480E0089507
:1013D00084EC8093BC008091BC0087FFFCCF80919F
:1013E000BB00089584E88093BC008091BC0087FF17
:1013F000FCCF8091BB00089582CF1F93CF93DF93E2
:10140000C0E0D0E080EAA3DF8D2FD1DF8C2FCFDFCB
:1014100018E08FEFCCDF8FEFCADF8FEFC8DF8FEFE1
:10142000C6DF1150B1F7BBDFA096C11580E1D80728
:1014300049F7DF91CF911F9108951F93CF93DF93C9
:1014400000D000D01F92CDB7DEB7182F80EA4B83B3
:101450005A836D837C8399837ADF9981892FA7DFF3
:10146000812FA5DF5A81852FA2DF4B81842F9FDF3B
:101470007C81872F9CDF6D81862F99DF0F900F90E5
:101480000F900F900F90DF91CF911F9188CFEF9227
:10149000FF920F931F93CF93DF931F92CDB7DEB7C9
:1014A000182F80EA998353DF9981892F80DF812F5C
:1014B0007EDF81EA73DF8CDF082F8ADF10E0102FD8
:1014C0000027080F111D84DFE82E8CDFF12CFE2C85
:1014D000EE24E80EF11C63DFB801C7010F90DF9125
:1014E000CF911F910F91FF90EF900895EF92FF928F
:1014F0000F931F93CF93DF9300D01F92CDB7DEB72A
:10150000182F80EA6A837B83998321DF9981892F51
:101510004EDF812F4CDF6A81E62E7B81F72E00E0C3
:1015200010E0F701818143DFF701808140DFF7019F
:1015300083813DDFF70182813ADF0F5F1F4FF4E0C7
:10154000EF0EF11C0830110561F70F900F900F900E
:10155000DF91CF911F910F91FF90EF9020CF1F92BD
:101560000F920FB60F9211242F938F939F93EF93A7
:10157000FF938091C8009091CE008C71E0919A0108
:10158000EF5FEF7120919901E21739F0E0939A0132
:10159000F0E0E356FE4F908301C082E09091980105
:1015A000982B90939801FF91EF919F918F912F919C
:1015B0000F900FBE0F901F9018951F920F920FB6AD
:1015C0000F9211248F939F93EF93FF9390919C011F
:1015D00080919B01981769F0E0919B01EF5FEF719B
:1015E000E0939B01F0E0E354FE4F80818093CE00B6
:1015F00005C08091C9008F7D8093C900FF91EF9154
:101600009F918F910F900FBE0F901F901895109281
:101610009C0110929B0110929A011092990197FFE0
:1016200003C022E02093C80090789093CD0080936F
:10163000CC0088E98093C90086E08093CA000895B1
:1016400090919C019F5F9F7120919B019217E1F304
:10165000E92FF0E0E354FE4F808390939C0180914A
:10166000C90080628093C9000895CF93DF93EC0195
:101670008991882311F0E4DFFBCFDF91CF910895AA
:10168000982F973058F59093E900981739F070919A
:10169000EC002091ED005091F00003C0242F762F34
:1016A00050E021FF19C03091EB003E7F3093EB00FA
:1016B0003091ED003D7F3093ED003091EB003160D3
:1016C0003093EB007093EC002093ED005093F0000A
:1016D0002091EE0027FF07C09F5FD3CF8F708093CC
:1016E000E90081E0089580E008950F931F93CF9360
:1016F000DF93062FEC0110E0101771F19881992308
:1017000041F12C81E981FA817B81892F8F708730AB
:1017100010F080E022C0223010F056E001C052E00C
:1017200028E030E040E02E173F0720F44F5F220F03
:10173000331FF9CF4295407F452B692F661F6627DF
:10174000661F90E4799F90011124622B99DF882312
:1017500001F31F5F2596D0CF81E0DF91CF911F91DC
:101760000F9108958091290287FD05C08091E800BE
:1017700080FF0EC012C08091E80082FD05C08091FC
:1017800028028111F8CF08958091E8008B7708C076
:10179000809128028111EACF08958091E8008E7728
:1017A0008093E80008958091E4009091E50045E67B
:1017B0002091EC0020FF21C02091E80020FD21C0F5
:1017C00020912802222389F0253089F02091EB0016
:1017D00025FD0FC02091E4003091E500281739075E
:1017E00039F3415041F0C901E3CF82E0089583E02D
:1017F000089581E0089584E008952091E80022FF93
:10180000DFCF80E008950F931F93CF93DF9346D0EF
:101810004DD0C8EDD0E088818F778883888180683B
:10182000888388818F7D888319BC1092280210924A
:101830002402109226021092250200EE10E0F80118
:1018400080818B7F808388818160888342E060E033
:1018500080E016DFE1EEF0E080818E7F8083E2EEB3
:10186000F0E0808181608083808188608083F801DE
:1018700080818E7F8083888180618883DF91CF9192
:101880001F910F910895E7EDF0E0808181608083E2
:1018900084E082BF81E080932702B5CFE8EDF0E0DD
:1018A00080818E7F80831092E20008951092DA008A
:1018B0001092E10008951F920F920FB60F9211241B
:1018C0002F933F934F935F936F937F938F939F9348
:1018D000AF93BF93EF93FF938091E10082FF0AC023
:1018E0008091E20082FF06C08091E1008B7F8093AF
:1018F000E10021DA8091DA0080FF1DC08091D800DC
:1019000080FF19C08091DA008E7F8093DA00809189
:10191000D90080FF0CC080E189BD82E189BD09B496
:1019200000FEFDCF81E080932802F3D904C019BCEA
:1019300010922802EFD98091E10080FF18C08091B9
:10194000E20080FF14C08091E2008E7F8093E2006D
:101950008091E20080618093E2008091D8008062F3
:101960008093D80019BC85E080932802F2D2809140
:10197000E10084FF2DC08091E20084FF29C080E156
:1019800089BD82E189BD09B400FEFDCF8091D800F8
:101990008F7D8093D8008091E1008F7E8093E1005D
:1019A0008091E2008F7E8093E2008091E20081606E
:1019B0008093E20080912402811104C08091E300B1
:1019C00087FF02C084E001C081E080932802C1D279
:1019D0008091E10083FF22C08091E20083FF1EC05E
:1019E0008091E100877F8093E10082E0809328026C
:1019F000109224028091E1008E7F8093E10080911B
:101A0000E2008E7F8093E2008091E200806180930B
:101A1000E20042E060E080E033DE9BD2FF91EF9194
:101A2000BF91AF919F918F917F916F915F914F91F6
:101A30003F912F910F900FBE0F901F901895CF924E
:101A4000DF92EF92FF920F931F93CF93DF937C016E
:101A50008B01EA01A8DE811131C0209731F0888125
:101A60009981081B190BE80EF91EC12CD12C011508
:101A7000110519F18091E80085FD14C08091E800FE
:101A80008E778093E80066D2209741F08881998113
:101A90008C0D9D1D9983888385E010C084DE88238A
:101AA00031F30CC0F70181917F018093F100015067
:101AB0001109FFEFCF1ADF0ADACF80E0DF91CF9173
:101AC0001F910F91FF90EF90DF90CF90089520919C
:101AD0002F02309130022617370748F06115710543
:101AE00039F42091E8002E772093E80001C0B90175
:101AF000FC0120E061157105A9F18091280288237D
:101B0000E9F18530E9F18091E80083FD35C08091ED
:101B1000E80082FF06C08091E80082FF26C080E0D6
:101B200008958091E80080FFE5CF2091F300809137
:101B3000F20090E0922B6115710551F0883091050B
:101B400038F421912093F100615071090196F3CF8F
:101B500021E0089709F020E08091E8008E778093DB
:101B6000E800C8CF2111C9CFD6CF809128028823A1
:101B700029F0853081F604C081E0089582E008955F
:101B800083E008956115710529F42091E8002B7711
:101B90002093E8006115710541F12091280222236C
:101BA00069F1253069F12091E80023FD23C02091DF
:101BB000E80022FFF2CFFC01CF014091F300209119
:101BC000F20030E0342B232B01F38091F10081935C
:101BD000CF01615071096115710571F7D6CF809100
:101BE0002802882359F0853059F08091E80080FF61
:101BF000F6CF02C081E0089580E0089582E0089564
:101C000083E0089520912F02309130022617370784
:101C100048F06115710539F42091E8002E77209382
:101C2000E80001C0B901FC0120E061157105C1F1B6
:101C300080912802882309F43FC0853009F43EC012
:101C40008091E80083FD36C08091E80082FF06C0E5
:101C50008091E80082FF27C080E008958091E8002D
:101C600080FFE3CF2091F3008091F20090E0922B6F
:101C70006115710559F08830910540F42491209345
:101C8000F1003196615071090196F2CF21E0089779
:101C900009F020E08091E8008E778093E800C5CFBE
:101CA0002111C6CFD5CF80912802882329F0853015
:101CB00079F604C081E0089582E0089583E00895F4
:101CC0000F931F93CF93DF93CDB7DEB7AA970FB6CD
:101CD000F894DEBF0FBECDBFE9E2F2E08091F100E3
:101CE000819322E0E133F207C9F721D88091E8001F
:101CF00083FF16C12091290230912A02832F90E0A0
:101D00008A30910508F00CC1FC01E15AFF4F3FC336
:101D1000203881F0223809F003C180912D028F70A4
:101D20008093E9008091EB0085FB882780F9109271
:101D3000E90006C0809125029091260291118260EF
:101D40009091E800977F9093E8008093F1001092C3
:101D5000F100C2C0822F8D7F09F0E2C0222319F06A
:101D6000223061F0DDC080912B02813009F0D8C0B3
:101D7000333009F080E08093260228C080912B0246
:101D8000811124C020912D022F7009F4C9C0209325
:101D9000E9008091EB0080FF19C08091EB003330A7
:101DA00011F4806211C080618093EB0081E090E0CB
:101DB000022E01C0880F0A94EAF78093EA0010927D
:101DC000EA008091EB0088608093EB001092E900BC
:101DD0008091E800877F83C02111A2C010912B025F
:101DE0001F770FB7F8948091E800877F8093E80011
:101DF000B9DC8091E80080FFFCCF8091E30080781F
:101E0000812B8093E30080688093E300112311F01D
:101E100083E001C082E0809328020FBF81C0205878
:101E2000223008F07DC080912B0290912C028C3DD5
:101E300023E0920771F583E08A838AE289834FB7B2
:101E4000F894DE01139620E03EE051E2E32FF0E04B
:101E500050935700E49120FF03C0E295EF703F5F7D
:101E6000EF708E2F90E0EA3010F0C79601C0C09658
:101E70008D939D932F5F243149F74FBF8091E800E8
:101E8000877F8093E8006AE270E0CE0101961FDE52
:101E900012C0AE014F5F5F4F60912D0256D8009780
:101EA00009F43EC02091E800277F2093E800BC01A0
:101EB00089819A81A7DE8091E8008B778093E80082
:101EC0002FC0203869F58091E800877F8093E80073
:101ED000809124028093F1008091E8008E778093B6
:101EE000E80040DC1DC021111BC090912B029230F4
:101EF000B8F48091E800877F8093E80090932402F3
:101F000031DC80912402811104C08091E30087FFBD
:101F100002C084E001C081E0809328020E948D0607
:101F20008091E80083FF0AC08091EB00806280937B
:101F3000EB008091E800877F8093E800AA960FB6B7
:101F4000F894DEBF0FBECDBFDF91CF911F910F91EF
:101F500008950895CF93809128028823A9F0809155
:101F6000E9008F709091EC0090FF02C090E801C0F2
:101F700090E0C92FC82B1092E9008091E80083FD02
:101F80009FDECF70C093E900CF9108956F927F924A
:101F90008F929F92AF92BF92CF92DF92EF92FF9279
:101FA0000F931F93CF93DF9300D01F92CDB7DEB76F
:101FB0007C01ADB6BEB68091E80083FF00C1F70199
:101FC000808190E020912D0230912E022817390750
:101FD00009F0F5C080912A02833009F497C030F4EB
:101FE000813071F0823009F4CEC0E9C08A3009F442
:101FF000B2C08B3009F49BC0893009F0E0C048C002
:1020000080912902813A09F0DAC08DB69EB61A8213
:10201000198280912B0210912C028B83F70140854D
:1020200050E08DB79EB7841B950B0FB6F8949EBFFA
:102030000FBE8DBFEDB7FEB731966F0160E070E067
:10204000CF012CD54FEF410F8E010F5F1F4F96012F
:10205000BE016D5F7F4FC7010E94A706F701868111
:102060009781009721F0408550E0B6010ED510927F
:10207000E9008091E800877F8093E80069817A8198
:10208000C60125DD8091E8008B778093E80038C099
:1020900080912902813209F092C08DB69EB60091DE
:1020A0002F021091300270902B0260902C028DB79D
:1020B0009EB7801B910B0FB6F8949EBF0FBE8DBFCD
:1020C000EDB7FEB731966F018091E800877F80936E
:1020D000E800B801CF0156DD8091E8008E7780934B
:1020E000E80021E0711001C020E030E0021B130B7A
:1020F0002C0D3D1D4FEF460D672DC7010E94D306E5
:102100000FB6F8949EBE0FBE8DBE59C080912902B5
:10211000813A09F054C08091E800877F8093E800FD
:102120008091E80080FFFCCFF701818540C080915D
:102130002902813209F043C08091E800877F8093B3
:10214000E80010DB90912B0281E0911101C080E04A
:10215000F701818734C080912902813281F5809115
:10216000E800877F8093E800FDDA80912B02909150
:102170002C02882736E0969587953A95E1F7F70186
:10218000958784871CC080912902813AC1F480918F
:10219000E800877F8093E8008091E80080FFFCCF13
:1021A000F701848595859695879596958795809373
:1021B000F1008091E8008E778093E800D3DA0FB6C3
:1021C000F894BEBE0FBEADBE0F900F900F90DF9182
:1021D000CF911F910F91FF90EF90DF90CF90BF9024
:1021E000AF909F908F907F906F900895FC013996EB
:1021F00027E0DF011D922A95E9F721E0FC01218704
:1022000024EF31E03587248723E0248361E00196C1
:102210006CCA5F926F927F928F929F92AF92BF92A1
:10222000CF92DF92EF92FF920F931F93CF93DF93A2
:1022300000D01F92CDB7DEB77C01ADB6BEB680919F
:102240002802843009F08BC08091E4009091E50071
:10225000F701228533852817390709F480C0818169
:102260008F708093E9008091E80085FF78C08DB67B
:102270009EB6408550E08DB79EB7841B950B0FB678
:10228000F8949EBF0FBE8DBFEDB7FEB731966F01BC
:102290001B821A82198260E070E0CF01FFD38E01A9
:1022A0000F5F1F4F960140E0BE016D5F7F4FC7017A
:1022B0000E94A706682EF70184859585892B41F039
:1022C00021E086859785892B09F020E0722E01C0D8
:1022D000712CF701068117810115110589F04981DB
:1022E0005A81B801C601C4D355245394892B09F4EB
:1022F000512CF701408550E0B601C801C6D301C09A
:10230000512C29813A81232BF1F0611004C0511026
:1023100002C070FE18C0F70184859585978786876F
:1023200081818F708093E9008B8181118093F1000E
:1023300069817A8140E050E0C60181DB8091E8004C
:102340008E778093E8008091E4009091E500F7019A
:10235000938782870FB6F8949EBE0FBE8DBE0FB6D0
:10236000F894BEBE0FBEADBE0F900F900F90DF91E0
:10237000CF911F910F91FF90EF90DF90CF90BF9082
:10238000AF909F908F907F906F905F900895EE0F29
:10239000FF1F0590F491E02D09945058BB27AA2700
:1023A0000ED0DCC0CDD030F0D2D020F031F49F3F41
:1023B00011F41EF4C2C00EF4E095E7FBB8C0E92F9B
:1023C000DED080F3BA17620773078407950718F009
:1023D00071F49EF5F6C00EF4E0950B2EBA2FA02DE9
:1023E0000B01B90190010C01CA01A0011124FF27C2
:1023F000591B99F0593F50F4503E68F11A16F040BD
:10240000A22F232F342F4427585FF3CF46953795BB
:102410002795A795F0405395C9F77EF41F16BA0B80
:10242000620B730B840BBAF09150A1F0FF0FBB1F2E
:10243000661F771F881FC2F70EC0BA0F621F731F77
:10244000841F48F4879577956795B795F7959E3FD4
:1024500008F0B3CF9395880F08F09927EE0F979562
:102460008795089540D008F481E00895E89409C064
:1024700097FB3EF490958095709561957F4F8F4FB7
:102480009F4F9923A9F0F92F96E9BB279395F695CD
:10249000879577956795B795F111F8CFFAF4BB0F4B
:1024A00011F460FF1BC06F5F7F4F8F4F9F4F16C0AF
:1024B000882311F096E911C0772321F09EE8872F39
:1024C000762F05C0662371F096E8862F70E060E0F5
:1024D0002AF09A95660F771F881FDAF7880F96956E
:1024E000879597F90895990F0008550FAA0BE0E812
:1024F000FEEF16161706E807F907C0F012161306C6
:10250000E407F50798F0621B730B840B950B39F405
:102510000A2661F0232B242B252B21F408950A266B
:1025200009F4A140A6958FEF811D811D089597F9AB
:102530009F6780E870E060E008959FEF80EC089569
:1025400000240A9416161706180609060895002492
:102550000A9412161306140605060895092E03940C
:10256000000C11F4882352F0BB0F40F4BF2B11F480
:1025700060FF04C06F5F7F4F8F4F9F4F089557FDDF
:102580009058440F551F59F05F3F71F04795880FE1
:1025900097FB991F61F09F3F79F087950895121678
:1025A00013061406551FF2CF4695F1DF08C0161624
:1025B00017061806991FF1CF8695710561050894D5
:1025C0000895E894BB2766277727CB0197F90895EC
:1025D0000BD0C4CFB5DF28F0BADF18F0952309F08F
:1025E000A6CFABCF1124EECFCADFA0F3959FD1F3D6
:1025F000950F50E0551F629FF001729FBB27F00DB1
:10260000B11D639FAA27F00DB11DAA1F649F662705
:10261000B00DA11D661F829F2227B00DA11D621F54
:10262000739FB00DA11D621F839FA00D611D221F0E
:10263000749F3327A00D611D231F849F600D211DF2
:10264000822F762F6A2F11249F5750408AF0E1F095
:1026500088234AF0EE0FFF1FBB1F661F771F881FDE
:1026600091505040A9F79E3F510570F060CFAACF1E
:102670005F3FECF3983EDCF3869577956795B795C9
:10268000F795E7959F5FC1F7FE2B880F911D9695F3
:10269000879597F90895FA01EE0FFF1F30962105EF
:1026A000310599F16115710561F48038BFE39B072D
:1026B00049F168949038810561F08038BFEF9B073D
:1026C00041F0992342F5FF3FE1053105210511F164
:1026D000E8940894E795D901AA2329F4AB2FBE2FDB
:1026E000F85FD0F310C0FF5F70F4A695E0F7F739FC
:1026F00050F019F0FF3A38F49F779F930CD00F9069
:1027000007FC905808953EF018CF60E070E080E834
:102710009FE308954FE79F775F934F933F932F93E6
:102720009ED02F913F914F915F9152DF05C019F4D8
:102730000EF0FDCE46CF01CF2ADFC8F39638C0F7A2
:1027400007F80F92E8942BE33AEA48EB5FE74EDF95
:102750000F920F920F924DB75EB70F92C0D0E2ED7D
:10276000F0E016D04F915F91EF91FF91E595EE1F4C
:10277000FF1F49F0FE57E0684427EE0F441FFA950B
:10278000E1F74195550B32D00F9007FE26C0089512
:10279000DF93CF931F930F93FF92EF92DF927B0112
:1027A0008C01689405C0DA2EEF011EDFFE01E8946B
:1027B000A5912591359145915591AEF3EF01FFDD3E
:1027C000FE019701A801DA9479F7DF90EF90FF906E
:1027D0000F911F91CF91DF9108959B01AC0160E0B3
:1027E00070E080E89FE3AEC0A2CE14C1D0DEE8F373
:1027F0009923D9F3940F511DBBF39150504094F09D
:1028000059F0882332F0660F771F881F915050408F
:10281000C1F79E3F510544F7880F911D9695879506
:1028200097F908955F3FACF0983E9CF0BB278695E2
:1028300077956795B79508F4B1609395C1F7BB0F8D
:1028400058F711F460FFE8CF6F5F7F4F8F4F9F4FB6
:10285000E3CFB8CE0EF0DEC070CE689468CE97DEBF
:10286000C8F39923D1F3C6F3DF93CF931F930F934C
:10287000FF92C92FDD2788232AF02197660F771F43
:10288000881FDAF720E030E040E85FEB9FE388390B
:1028900020F0803E30F021968F7780DDEAEFF0E087
:1028A00003C07CDDE7E2F1E073DF8B01BE01EC01E8
:1028B000FB2E6F5771097595771F880B990BD8DD23
:1028C00028E132E741E35FE38FDEAF2D9801AE01EF
:1028D000FF900F911F91CF91DF9171DD3FCEFA01F3
:1028E000DC01AA0FBB1F9B01AC01BF5728F42227B4
:1028F0003327442750781FC0B75188F4AB2F0024EA
:10290000469537952795011CA395D2F3002069F0D1
:10291000220F331F441FB395DAF30DD03ECD613043
:102920007105A0E88A07B94630F49B01AC0166271F
:10293000772788279078309621F02083318342834F
:10294000538308950CD00ACE02DE40F0F9DD30F05A
:1029500021F45F3F19F0EBCD511134CEEECD0FDEF7
:1029600098F39923C9F35523B1F3951B550BBB2756
:10297000AA2762177307840738F09F5F5F4F220F03
:10298000331F441FAA1FA9F333D00E2E3AF0E0E8FC
:1029900030D091505040E695001CCAF729D0FE2F48
:1029A00027D0660F771F881FBB1F261737074807DA
:1029B000AB07B0E809F0BB0B802DBF01FF27935890
:1029C0005F4F2AF09E3F510568F0B1CDFBCD5F3FD0
:1029D000ECF3983EDCF3869577956795B795F79578
:1029E0009F5FC9F7880F911D9695879597F9089570
:1029F000E1E0660F771F881FBB1F6217730784070C
:102A0000BA0720F0621B730B840BBA0BEE1F88F71A
:102A1000E09508959F3F31F0915020F48795779588
:102A20006795B795880F911D9695879597F90895A5
:102A3000EF920F931F93CF93DF93E80147FF02C0FC
:102A400034E101C034E0E42FFF27E7FDF095F7FF04
:102A500003C0F195E195F109E32E022F2E2FAE016F
:102A600061D0CE01DF91CF911F910F91EF9008952A
:102A7000FB01DC0104C08D910190801921F44150CB
:102A80005040C8F7881B990B0895FB01DC0102C078
:102A900001900D9241505040D8F70895DC0101C0DB
:102AA0006D9341505040E0F70895BB274A3031F410
:102AB000992322F4BDE2909581959F4F01C0BB27D9
:102AC000FB015527AA27880F991FAA1FA41710F0EA
:102AD000A41B83955051B9F7A05DAA3308F0A95DF6
:102AE000A193009779F7B111B1931192CB016FC205
:102AF000F999FECF92BD81BDF89A992780B50895C6
:102B0000262FF999FECF92BD81BDF89A019700B4A6
:102B1000021639F01FBA20BD0FB6F894FA9AF99A46
:102B20000FBE08956F927F929F92AF92BF92CF9205
:102B3000DF92EF92FF920F931F93CF93DF93CDB766
:102B4000DEB729970FB6F894DEBF0FBECDBF6A017E
:102B5000B22E102F0C3320F4FF24F394F00E02C099
:102B60004CE3F42E0F2D27E0AE014F5F5F4F57D19E
:102B70007981272F2970213031F0E1FC06C0E0FC7B
:102B800006C060E005C06DE203C06BE201C060E218
:102B9000AE2DA07173FF36C0662311F084E001C032
:102BA00083E08B1510F4B81A01C0B12CA1110BC031
:102BB000F6018B2D90E2882319F091938150FBCF81
:102BC000CB0CD11CB12C662331F0F6016083960149
:102BD0002F5F3F4F6901C6010396E2FE05C02EE458
:102BE000F601208331E404C02EE6F601208331E6AD
:102BF00031832283FC012B2D30E22223F1F131932A
:102C00002150FBCF72FF40C0662311F084E001C069
:102C100083E08B1510F4B81A01C0B12CA1110BC0C0
:102C2000F6018B2D90E2882319F091938150FBCF10
:102C3000CB0CD11CB12C662331F0F60160839601D8
:102C40002F5F3F4F6901C6010396E2FE07C029E4EA
:102C5000F60120832EE4218326E406C029E6F6014E
:102C600020832EE6218326E62283FC012B2D30E2F1
:102C7000222319F031932150FBCFFC01EB0DF11D04
:102C800010828EEF9FEFB7C0B1E0611101C0B0E0DC
:102C90004B2F50E01816190624F49C012F5F3F4F6C
:102CA00002C021E030E0240F351F112329F0412F0D
:102CB00050E04F5F5F4F02C040E050E0420F531FB3
:102CC0002B2D30E04217530714F4B41A01C0B12C75
:102CD0002E2D287159F4F6012B2D30E2222319F004
:102CE00031932150FBCFCB0CD11CB12CBB2331F045
:102CF000F601608396012F5F3F4F6901A1110BC060
:102D0000F6012B2D30E3222319F031932150FBCF14
:102D1000CB0CD11CB12CF80E0A81372F3071A32EA9
:102D200074FF03C0013309F4FA941F142CF42F2DFF
:102D3000293018F028E001C021E0682F392F97FFD3
:102D400002C060E030E0462F532F612C712C3EE230
:102D5000932EBC01621B71099B01DC01A41BB50B06
:102D6000E1E0F0E0EC0FFD1FAE0FBF1FE12EF12CF4
:102D7000F194E194F1084F3FFFEF5F0731F4F60162
:102D80009082B6016F5F7F4F6B01841795074CF0FF
:102D90002417350734F4BD01660D771DFB01118141
:102DA00001C010E341505109FFEF6F1A7F0AB601CD
:102DB0006F5F7F4F4E155F0524F0F60110836B01A6
:102DC000DACF4817590739F4063320F4053319F4DC
:102DD000A11001C011E3F6011083FB018B2D90E2DD
:102DE000882319F091938150FBCFFB01EB0DF11D6E
:102DF000108280E090E029960FB6F894DEBF0FBEF7
:102E0000CDBFDF91CF911F910F91FF90EF90DF9099
:102E1000CF90BF90AF909F907F906F900895283093
:102E200008F027E03327DA01990F311D87FD916003
:102E300000966105710539F432602E5F3D9330E3F1
:102E40002A95E1F708959F3F30F0803871056105BC
:102E500009F03C5F3C5F3D93913008F08068911D24
:102E6000DF93CF931F930F93FF92EF92192F987FC9
:102E70009695E92F96959695E90FFF27E45BFD4F10
:102E800099273327EE24FF24A701E7010590089432
:102E9000079428F4360FE71EF81E491F511D660FD0
:102EA000771F881F991F0694A1F70590079428F4AF
:102EB000E70EF81E491F561FC11D770F881F991F67
:102EC000661F0694A1F70590079428F4F80E491F91
:102ED000561FC71FD11D880F991F661F771F0694A5
:102EE000A1F70590079420F4490F561FC71FD81F5C
:102EF000990F661F771F881F0694A9F78491109574
:102F0000177041F0D695C79557954795F794E79474
:102F10001A95C1F7E2EFF1E068941590159135919B
:102F20006591959105907FE27395E118F10A430B45
:102F3000560BC90BD009C0F7E10CF11E431F561FF9
:102F4000C91FD01D7EF4703311F48A95E6CFE89442
:102F5000015030F0080F0AF40027021708F4202F60
:102F60002395022F7A3328F079E37D932A95E9F7A8
:102F700010C07D932A9589F60694979567953795A5
:102F800017951794E118F10A430B560BC90BD0099A
:102F900098F023957E9173957A3308F070E37C93D3
:102FA0002013B8F77E9170617D9330F0839571E3C3
:102FB0007D9370E32A95E1F71124EF90FF900F9134
:102FC0001F91CF91DF91992787FD90950895DC019E
:102FD000FC01672F71917723E1F7329704C07C9150
:102FE0006D9370836291AE17BF07C8F30895F8948C
:022FF000FFCF11
:102FF20000810800000190010800000000000000AC
:1030020041542B5253540A0041542B4349504D55BD
:10301200583D300A0041542B4349505354415254B5
:103022003D22544350222C223138342E3130362E58
:103032003135332E313439222C38300A0041542BA9
:1030420043495053454E443D00474554202F757027
:10305200646174653F6B65793D0056535359505115
:10306200384F53534A475055444F00266669656CA2
:1030720064313D00266669656C64323D340A0000A5
:00000001FF
