:10000000F8C0000012C1000010C100000EC10000C5
:100010000CC100000AC1000008C1000006C10000B8
:1000200004C1000096C100000C94330BFEC0000018
:10003000FCC00000FAC00000F8C00000F6C00000DC
:10004000F4C00000F6C20000AFC4000047C50000C5
:10005000ECC00000D0C20000B3C10000E6C0000048
:10006000E4C00000E2C00000E0C00000DEC000000C
:10007000DCC00000DAC00000D8C00000D6C000001C
:10008000D4C00000D2C00000D0C00000CEC000002C
:10009000CCC00000CAC00000C8C00000C6C000003C
:1000A000C4C00000C2C00000C0C000000306FF05BD
:1000B00056061C06F805FC05A30673068706600DA8
:1000C000820D680E820D680EC40DE70D680E390EA4
:1000D0004B0E07634236B79BD8A71A39685618AE3D
:1000E000BAAB558C1D3CB7CC5763BD6DEDFD753E6D
:1000F000F6177231BF000000803F08000000BE927A
:100100002449123EABAAAA2ABECDCCCC4C3E00005C
:100110000080BEABAAAAAA3E00000000BF000000FB
:10012000803F0000000000084178D3BB4387D11313
:100130003D190E3CC3BD4282AD2B3E68EC8276BEBB
:10014000D98FE1A93E4C80EFFFBE01C4FF7F3F0085
:1001500000000000200342007200650077004D009F
:100160006F006E00690074006F007200200055007F
:100170005300420000002203440069006700690048
:10018000740061006C00200048006F006D00650085
:100190006200720065007700000004030904090290
:1001A0002200010100C03209040000010300000028
:1001B0000921110100012220000705810308000523
:1001C0001201100100000008D016AA070000010269
:1001D00000010600FF0901A1010902150025FF75B4
:1001E00008950881020903150025FF7508950891F7
:1001F00002C011241FBECFEFDAE0DEBFCDBF11E099
:10020000A0E0B1E0E2E5F8E202C005900D92A03175
:10021000B107D9F721E0A0E1B1E001C01D92AC36F1
:10022000B207E1F774D30C942714EACE80E0EFE331
:10023000FCE93197F1F700C000001F9B03C0843137
:1002400011F403C080E08F5FF2CF8FE39CE9019748
:10025000F1F700C00000089590E080E80FB6F89430
:1002600080936100909361000FBE85BF85BF84B706
:10027000877F84BF88E10FB6F89480936000109266
:1002800060000FBE259A249A859A849A809A2798AE
:100290008198549A509A519A8D9A8F9A889A8C9AEA
:1002A0002FEF87E893E1215080409040E1F700C0B4
:1002B000000026E040E350E061E370E08FE290E070
:1002C00035D69AD7EAE7F0E0808184608083808128
:1002D00082608083808181608083ACE7B0E08C9114
:1002E00080648C938C9180628C938C9181608C93D0
:1002F000808180688083808180648083089585B553
:10030000816085BD85B5846085BDE1E8F0E08081D0
:1003100081608083808184608083EFE6F0E080816B
:1003200082608083808184608083E8E6F0E0808161
:1003300081608083EBE6F0E0808180688083EEE678
:10034000F0E0808184608083789481E0809337013D
:1003500008951F920F920FB60F9211242F938F932F
:100360009F931F9905C0109255011092540120C00F
:100370008091540190915501833221E0920720F041
:1003800081E0809319010DC0892B91F080913A0191
:10039000882321F081E080933D0103C081E08093B8
:1003A0002701809168008E7F8093680010922A0157
:1003B0009F918F912F910F900FBE0F901F901895C6
:1003C0001F920F920FB60F9211242F938F939F932A
:1003D0001F990AC080915401909155010196909304
:1003E00055018093540104C010925501109254019C
:1003F00080912A0191E0980F90932A01833029F48B
:100400008091680081608093680080915401909190
:1004100055018332914020F085B190E2892785B95A
:100420009F918F912F910F900FBE0F901F90189555
:10043000CF93C82F1092270110923F0161E080E016
:1004400090E00E9415148091250190912601C11120
:1004500002C0009771F440E050E06FEF7FEFEDD6FF
:100460008091250190912601049690932601809316
:10047000250121E0209341012093570180918400C0
:1004800090918500875F924C9093890080938800BB
:1004900020933A011092200110921F0110922E0118
:1004A00010922D01CF91089510923D0160E080E0FF
:1004B00090E00E94151410923A012D980895109220
:1004C0001901F2DF2D9A99D660E086E090E00E9453
:1004D00015141092210110922601109225011092FC
:1004E0002E0110922D012D9881E080933601089500
:1004F000CF93DF93C0E0D0E0CE01C9D66F3F7F4FEE
:1005000011F4019639F02496C11580E1D807A1F7BE
:10051000C0E0D0E0CE01DF91CF9108950F931F93FB
:10052000CF93DF931F92CDB7DEB786E090E00E94B5
:100530000D148F3FF1F460E080E090E00E9415140C
:1005400060E086E090E00E94151464E188E090E0AD
:100550000E94151462E38AE090E00E94151460E0A6
:100560008CE090E00E94151460E28EE090E00E9422
:100570001514BEDF909326018093250186E090E05C
:100580000E940D148093210188E090E00E940D14D8
:10059000809343018AE090E00E940D148093320121
:1005A0008EE090E00E940D1490E0182F0027109329
:1005B0001D0100931C018CE090E00E940D14080FB7
:1005C000111D10931D0100931C0180E090E00E941A
:1005D0000D14813051F41F9906C0898327DE89816B
:1005E00080933F0102C0809327010F90DF91CF914C
:1005F0001F910F9108951F920F920FB60F92112421
:100600008F939F9380911E0191E0980F90931E010C
:10061000843141F42D9810921E0180916E008D7FDF
:1006200080936E009F918F910F900FBE0F901F903F
:1006300018951F920F920FB60F9211248F939F93CC
:100640008091880090918900875F924C90938900F7
:100650008093880080913A01882319F081E080938B
:10066000410181E0809357019F918F910F900FBEC0
:100670000F901F90189510922F0187E08093220110
:100680008091300190913101909356018093350112
:10069000809138019091390190933E018093280117
:1006A0008091420180931B018091340180933C0131
:1006B00081E080933601109239011092380108953B
:1006C0002F923F924F925F926F927F928F929F9262
:1006D000AF92BF92CF92DF92EF92FF920F931F9350
:1006E000CF93DF93CDB7DEB7A0970FB6F894DEBFF8
:1006F0000FBECDBF80E098E0909326018093250146
:10070000609121016F5F6093210186E090E00E947B
:100710001514412C512C6E0121E2C20ED11C8E0108
:100720000F5F1F4F7201EE0CFF1CC701B0D54B01CC
:100730005C01C7010496ABD5FC018114910421F43E
:100740002FEFA216B20621F0672B41F4319631F457
:10075000F801118210828FEF9FEF05C0F80191829E
:1007600080828A0D9B1D93838283F8E0EF0EF11C3B
:100770000C5F1F4F0C151D05C1F6BE016F5F7F4F4B
:10078000C201B4D520E2420E511C411488E0580643
:1007900031F6FE0131968FEF9FEF91838083938333
:1007A00082833496EC15FD05C1F700E018E0BE0128
:1007B0006F5F7F4FC8019AD5005E1F4F011590E112
:1007C0001907A9F7A0960FB6F894DEBF0FBECDBFEC
:1007D000DF91CF911F910F91FF90EF90DF90CF901D
:1007E000BF90AF909F908F907F906F905F904F9051
:1007F0003F902F9008958F929F92AF92BF92CF9289
:10080000DF92EF92FF92CF93DF932D9A80916E004B
:10081000826080936E0010924101809140018F5F51
:100820008E3119F08093400102C0109240018091F6
:10083000400180FF02C0CED501C0E3D5C0912D019B
:10084000D0912E016091210170E080E090E00E9443
:100850000E119B01AC0160E070E080E090E40E942A
:10086000C0114B015C01BE0180E090E00E940E11BE
:100870006B017C0120E030E040E85FE3C501B4019A
:100880000E94A5109B01AC01C701B6010E940A118C
:1008900087FF06C02196D0932E01C0932D012CC056
:1008A00010922E0110922D01409130015091310192
:1008B00060911F0170912001809125019091260186
:1008C000BCD4809125019091260104969093260135
:1008D000809325011092200110921F0181159041F3
:1008E00059F4DF91CF91FF90EF90DF90CF90BF90C0
:1008F000AF909F908F90E4CEDF91CF91FF90EF90DB
:10090000DF90CF90BF90AF909F908F9008952D9AD9
:100910002C9AA2DC24D52FEF83EC99E02150804063
:100920009040E1F700C00000F9DD85D6E8DC2D98A5
:100930002C9880E091E00E94E10F0E94820E80914D
:100940004101882311F057DFF4CF80912F018823D4
:1009500011F091DEEECF80912701882311F081E024
:1009600005C080913F01882319F080E061DDE1CF6F
:1009700080913D01882311F097DDDBCF80915701F5
:10098000882361F07ED3909331018093300160E041
:1009900070E081E058D310925701CBCF80911901BC
:1009A000882339F28CDDC5CF1F920F920FB60F92BC
:1009B00011242F933F938F939F9380918A0090915E
:1009C0008B0086579F4F90938B0080938A00809175
:1009D00079008093340180917A00806480937A005A
:1009E00080913701882309F45DC080912301811132
:1009F00009C09091340180914301981718F481E067
:100A00008093230180912301882309F44BC08091B6
:100A10002401811109C0909134018091320189171C
:100A200018F481E080932401809124018823D1F17E
:100A300080912C018823F1F180912C01882391F180
:100A400080911F0190912001019690932001809345
:100A50001F018091380190913901019690933901DD
:100A600080933801109223011092240110922C01DE
:100A7000109237012C9A81E080934201809184008A
:100A80009091850020911C0130911D01820F931FD0
:100A900090938D0080938C00B39A80916F00886052
:100AA00080936F0080911801882379F081E0809312
:100AB0002F010BC09091340180914301981708F0E9
:100AC000BBCF81E080932C01B7CF9F918F913F9155
:100AD0002F910F900FBE0F901F9018951F920F929D
:100AE0000FB60F9211248F93EF93FF932C981092CF
:100AF000420181E080933701EFE6F0E08081877F5B
:100B00008083FF91EF918F910F900FBE0F901F90F8
:100B10001895089510921801089580E091E00E94C0
:100B2000CE0FE2EEF0E0808184608083089580E063
:100B300091E00C949E0E80910E0190910F01009710
:100B400029F0019790930F0180930E0108950F9360
:100B50001F93F90180913601882309F188E090E024
:100B6000D8018D939C9380912201808380915601BE
:100B7000818380913501828380913E0183838091BE
:100B80002801848380911B01858380913C018683A9
:100B900080911A0187831092360181E001C080E0C4
:100BA0001F910F910895CF93F901808180932201C5
:100BB0006181609356019281909335019381909366
:100BC0003E01948190932801958190931B01968119
:100BD00090933C01978190931A0190E0FC0131972A
:100BE000E930F10508F0AFC0EA5AFF4F0C949F10AE
:100BF00081E080931801A5C010921801A1C081E086
:100C0000809319019EC02D9A80916E00826080931E
:100C10006E008091560190E0982F88272091350131
:100C2000820F911D34D370933E01609328019093FD
:100C30001B0180933C0184C0C091180110921801DF
:100C40008AE090E00E941514809156018093320151
:100C50006091350188E090E00E9415148091350183
:100C60008093430160913E018EE090E00E94151454
:100C700080913E0110921C0180931D01609128011A
:100C80008CE090E00E9415142091280180911C01B5
:100C900090911D01820F911D90931D0180931C0165
:100CA00081E080933601C09318014DC01092180165
:100CB00080913201809356018091430180933501E8
:100CC00080911C0190911D0190933E018093280119
:100CD0008091210180931B01809125019091260133
:100CE00090933C012BC091E09093560184E0809357
:100CF000350183E680933E018093280180931B0198
:100D000080933C0180931A01909336011CC080911E
:100D100021018093560180912D0190912E01909395
:100D2000350180933E018091250190912601909399
:100D3000280180931B0183E680933C0180931A0174
:100D400081E080933601CF910895292F33272330F6
:100D50003105B9F05CF42130310569F122303105FB
:100D600079F582E290E02EE931E02EC021323105A2
:100D7000E9F02232310521F580E290E022ED31E008
:100D800023C099278130910541F08230910541F0CF
:100D9000892BB1F4EAE9F1E005C0E6E7F1E002C031
:100DA000E4E5F1E0849190E09F010EC089E090E0DD
:100DB00020EB31E009C082E190E020EC31E004C09A
:100DC00080E090E020E030E0FA0131832083089554
:100DD000E0915B01F0915C01908180915A0189233F
:100DE0000895E0915801F0915901808190915A0144
:100DF000892B8083E0915D01F0915E01808190916B
:100E00005A01892B808308951F93CF93DF931F92FC
:100E1000CDB7DEB71FB7F894E0915D01F0915E01A8
:100E2000908120915A01922B90839AE09A95F1F744
:100E300000C0882351F0E0915D01F0915E012081B6
:100E400090915A01909592239083E5E4EA95F1F709
:100E50000000E0915B01F0915C01908120915A01CA
:100E6000922309F480E0F5EEFA95F1F70000E091A5
:100E70005D01F0915E01208190915A01909592233D
:100E80009083662319F08983ACDF89811FBF9AE6BE
:100E90009A95F1F700C00F90DF91CF911F910895BF
:100EA000E0915801F0915901908180915A0180950B
:100EB00089238083E0915D01F0915E0180819091B2
:100EC0005A01892B80838FE797E00197F1F700C0E3
:100ED00000009FB7F894E0915D01F0915E012081E0
:100EE00080915A01809582238083EFEFF0E0319763
:100EF000F1F700C00000E0915B01F0915C012081FE
:100F000080915A019FBFEFE7F6E03197F1F700C0FB
:100F10000000E0915B01F0915C01908130915A01F9
:100F2000932311F08223089581E0089550935E0188
:100F300040935D01709359016093580190935C0157
:100F400080935B0181E001C0880F2A95EAF78093C6
:100F50005A01A6CF60E0817057CFCF93DF93C82F9F
:100F6000D8E08C2F8170F6DFC6958111C068D15012
:100F7000C1F78C2FDF91CF910895CF93DF93C82FC6
:100F8000D8E08C2F8170D13011F060E001C061E0B9
:100F90003BDFC6958111C068D15099F78C2FDF9146
:100FA000CF910895EF92FF920F931F93CF93DF930A
:100FB000F82EEB01E42E74DF209759F085E5CDDFA4
:100FC0008E01085F1F4F8991C8DFC017D107D9F77D
:100FD00002C08CECC2DF8F2DEE2039F0DF91CF9173
:100FE0001F910F91FF90EF90C8CFDF91CF911F918C
:100FF0000F91FF90EF90B1CF8FEFAFCF40E0D2CF06
:1010000041E0D0CFFF920F931F93CF93DF93062F32
:10101000F72EBC018EEBF2DFC02FDF2D19E0ECDFE5
:1010200089931150E1F769E070E0802F9F2D4ED039
:10103000882311F083E001C080E0DF91CF911F9100
:101040000F91FF9008951F93CF93DF9300D0CDB7FA
:10105000DEB7182F69837A8323DFBADE69817A814C
:10106000882341F084E4113011F0CADF01C0C6DFEB
:1010700080E001C082E00F900F90DF91CF911F912F
:101080000895CF93DF93CDB7DEB729970FB6F894C5
:10109000DEBF0FBECDBFBE016F5F7F4F80E090E02F
:1010A000B1DF811108C08A8190E0982F88272981BB
:1010B000820F911D02C080E090E029960FB6F8944F
:1010C000DEBF0FBECDBFDF91CF910895FC01680F49
:1010D000791F80E048E1E617F70781F0219198E059
:1010E000322F3827532F517030FD84278695513089
:1010F00009F480682695915099F7EDCF08951092E4
:10110000B90088E48093B800089594EA9093BC00F5
:101110009091BC0097FFFCCF9091B900987F9830D8
:1011200021F0903111F081E008958093BB0084E8B4
:101130008093BC008091BC0087FFFCCF8091B900F8
:10114000887F883111F0803471F780E0089524EAB7
:1011500034E844E92093BC009091BC0097FFFCCF99
:101160009091B900987F983011F0903199F7809361
:10117000BB003093BC009091BC0097FFFCCF9091D6
:10118000B900987F903211F0983539F44093BC0043
:101190009091BC0094FDFCCFDDCF0895B6CF84E9DB
:1011A0008093BC008091BC0084FDFCCF08958093A7
:1011B000BB0084E88093BC008091BC0087FFFCCF1B
:1011C0009091B900987F81E0983209F480E0089509
:1011D00084EC8093BC008091BC0087FFFCCF8091A1
:1011E000BB00089584E88093BC008091BC0087FF19
:1011F000FCCF8091BB00089582CF1F93CF93DF93E4
:10120000C0E0D0E080EAA3DF8D2FD1DF8C2FCFDFCD
:1012100018E08FEFCCDF8FEFCADF8FEFC8DF8FEFE3
:10122000C6DF1150B1F7BBDFA096C11580E1D8072A
:1012300049F7DF91CF911F9108951F93CF93DF93CB
:1012400000D000D01F92CDB7DEB7182F80EA4B83B5
:101250005A836D837C8399837ADF9981892FA7DFF5
:10126000812FA5DF5A81852FA2DF4B81842F9FDF3D
:101270007C81872F9CDF6D81862F99DF0F900F90E7
:101280000F900F900F90DF91CF911F9188CFEF9229
:10129000FF920F931F93CF93DF931F92CDB7DEB7CB
:1012A000182F80EA998353DF9981892F80DF812F5E
:1012B0007EDF81EA73DF8CDF082F8ADF10E0102FDA
:1012C0000027080F111D84DFE82E8CDFF12CFE2C87
:1012D000EE24E80EF11C63DFB801C7010F90DF9127
:1012E000CF911F910F91FF90EF900895EF92FF9291
:1012F0000F931F93CF93DF9300D01F92CDB7DEB72C
:10130000182F80EA6A837B83998321DF9981892F53
:101310004EDF812F4CDF6A81E62E7B81F72E00E0C5
:1013200010E0F701818143DFF701808140DFF701A1
:1013300083813DDFF70182813ADF0F5F1F4FF4E0C9
:10134000EF0EF11C0830110561F70F900F900F9010
:10135000DF91CF911F910F91FF90EF9020CF269AB0
:1013600008952E9A8FEA94E00197F1F700C00000EB
:101370002E988FE09EE00197F1F700C000000895DD
:1013800027E030E090E0AC01022E02C05595479571
:101390000A94E2F72E9A40FF0CC0EFE0FEE031978E
:1013A000F1F700C000002E98EFEAF4E03197F1F772
:1013B0000BC0EFEAF4E03197F1F700C000002E987F
:1013C000EFE0FEE03197F1F700C000002150310955
:1013D000D0F60895CF93DF93C6E0D0E0C2DF86EE6B
:1013E000CFDF80E7CDDF84E1CBDF8FE39CE901979E
:1013F000F1F700C000002197209781F7DF91CF918E
:101400000895CF93DF93C6E0D0E0ABDF86EEB8DF80
:1014100080E7B6DF84E0B4DF8FE39CE90197F1F762
:1014200000C000002197209781F7DF91CF910895A8
:10143000982F973058F59093E900981739F07091EC
:10144000EC002091ED005091F00003C0242F762F86
:1014500050E021FF19C03091EB003E7F3093EB004C
:101460003091ED003D7F3093ED003091EB00316025
:101470003093EB007093EC002093ED005093F0005C
:101480002091EE0027FF07C09F5FD3CF8F7080931E
:10149000E90081E0089580E008950F931F93CF93B2
:1014A000DF93062FEC0110E0101771F1988199235A
:1014B00041F12C81E981FA817B81892F8F708730FE
:1014C00010F080E022C0223010F056E001C052E05F
:1014D00028E030E040E02E173F0720F44F5F220F56
:1014E000331FF9CF4295407F452B692F661F662732
:1014F000661F90E4799F90011124622B99DF882365
:1015000001F31F5F2596D0CF81E0DF91CF911F912E
:101510000F9108958091640187FD05C08091E800D6
:1015200080FF0EC012C08091E80082FD05C080914E
:1015300063018111F8CF08958091E8008B7708C08E
:10154000809163018111EACF08958091E8008E7740
:101550008093E80008958091E4009091E50045E6CD
:101560002091EC0020FF21C02091E80020FD21C047
:1015700020916301222389F0253089F02091EB002E
:1015800025FD0FC02091E4003091E50028173907B0
:1015900039F3415041F0C901E3CF82E0089583E07F
:1015A000089581E0089584E008952091E80022FFE5
:1015B000DFCF80E008950F931F93CF93DF9346D042
:1015C0004DD0C8EDD0E088818F778883888180688E
:1015D000888388818F7D888319BC10926301109263
:1015E0005F01109261011092600100EE10E0F801BD
:1015F00080818B7F808388818160888342E060E086
:1016000080E016DFE1EEF0E080818E7F8083E2EE05
:10161000F0E0808181608083808188608083F80130
:1016200080818E7F8083888180618883DF91CF91E4
:101630001F910F910895E7EDF0E080818160808334
:1016400084E082BF81E080936201B5CFE8EDF0E0F5
:1016500080818E7F80831092E20008951092DA00DC
:101660001092E10008951F920F920FB60F9211246D
:101670002F933F934F935F936F937F938F939F939A
:10168000AF93BF93EF93FF938091E10082FF0AC075
:101690008091E20082FF06C08091E1008B7F809301
:1016A000E10049DA8091DA0080FF1DC08091D80006
:1016B00080FF19C08091DA008E7F8093DA008091DC
:1016C000D90080FF0CC080E189BD82E189BD09B4E9
:1016D00000FEFDCF81E0809363011BDA04C019BCDA
:1016E0001092630117DA8091E10080FF18C08091A9
:1016F000E20080FF14C08091E2008E7F8093E200C0
:101700008091E20080618093E2008091D800806245
:101710008093D80019BC85E080936301F2D2809158
:10172000E10084FF2DC08091E20084FF29C080E1A8
:1017300089BD82E189BD09B400FEFDCF8091D8004A
:101740008F7D8093D8008091E1008F7E8093E100AF
:101750008091E2008F7E8093E2008091E2008160C0
:101760008093E20080915F01811104C08091E300C9
:1017700087FF02C084E001C081E080936301C1D291
:101780008091E10083FF22C08091E20083FF1EC0B0
:101790008091E100877F8093E10082E08093630184
:1017A00010925F018091E1008E7F8093E100809133
:1017B000E2008E7F8093E2008091E200806180935E
:1017C000E20042E060E080E033DE9BD2FF91EF91E7
:1017D000BF91AF919F918F917F916F915F914F9149
:1017E0003F912F910F900FBE0F901F901895CF92A1
:1017F000DF92EF92FF920F931F93CF93DF937C01C1
:101800008B01EA01A8DE811131C0209731F0888177
:101810009981081B190BE80EF91EC12CD12C01155A
:10182000110519F18091E80085FD14C08091E80050
:101830008E778093E80066D2209741F08881998165
:101840008C0D9D1D9983888385E010C084DE8823DC
:1018500031F30CC0F70181917F018093F1000150B9
:101860001109FFEFCF1ADF0ADACF80E0DF91CF91C5
:101870001F910F91FF90EF90DF90CF9008952091EE
:101880006A0130916B012617370748F06115710521
:1018900039F42091E8002E772093E80001C0B901C7
:1018A000FC0120E061157105A9F180916301882395
:1018B000E9F18530E9F18091E80083FD35C0809140
:1018C000E80082FF06C08091E80082FF26C080E029
:1018D00008958091E80080FFE5CF2091F30080918A
:1018E000F20090E0922B6115710551F0883091055E
:1018F00038F421912093F100615071090196F3CFE2
:1019000021E0089709F020E08091E8008E7780932D
:10191000E800C8CF2111C9CFD6CF809163018823B9
:1019200029F0853081F604C081E0089582E00895B1
:1019300083E008956115710529F42091E8002B7763
:101940002093E8006115710541F120916301222384
:1019500069F1253069F12091E80023FD23C0209131
:10196000E80022FFF2CFFC01CF014091F30020916B
:10197000F20030E0342B232B01F38091F1008193AE
:10198000CF01615071096115710571F7D6CF809152
:101990006301882359F0853059F08091E80080FF79
:1019A000F6CF02C081E0089580E0089582E00895B6
:1019B00083E0089520916A0130916B012617370763
:1019C00048F06115710539F42091E8002E772093D5
:1019D000E80001C0B901FC0120E061157105C1F109
:1019E00080916301882309F43FC0853009F43EC02B
:1019F0008091E80083FD36C08091E80082FF06C038
:101A00008091E80082FF27C080E008958091E8007F
:101A100080FFE3CF2091F3008091F20090E0922BC1
:101A20006115710559F08830910540F42491209397
:101A3000F1003196615071090196F2CF21E00897CB
:101A400009F020E08091E8008E778093E800C5CF10
:101A50002111C6CFD5CF80916301882329F085302D
:101A600079F604C081E0089582E0089583E0089546
:101A70000F931F93CF93DF93CDB7DEB7AA970FB61F
:101A8000F894DEBF0FBECDBFE4E6F1E08091F10037
:101A9000819321E0EC36F207C9F749D88091E8003C
:101AA00083FF16C12091640130916501832F90E07E
:101AB0008A30910508F00CC1FC01E15AFF4F3FC389
:101AC000203881F0223809F003C1809168018F70BD
:101AD0008093E9008091EB0085FB882780F91092C4
:101AE000E90006C0809160019091610191118260CE
:101AF0009091E800977F9093E8008093F100109216
:101B0000F100C2C0822F8D7F09F0E2C0222319F0BC
:101B1000223061F0DDC080916601813009F0D8C0CB
:101B2000333009F080E08093610128C08091660124
:101B3000811124C0209168012F7009F4C9C020933D
:101B4000E9008091EB0080FF19C08091EB003330F9
:101B500011F4806211C080618093EB0081E090E01D
:101B6000022E01C0880F0A94EAF78093EA001092CF
:101B7000EA008091EB0088608093EB001092E9000E
:101B80008091E800877F83C02111A2C01091660177
:101B90001F770FB7F8948091E800877F8093E80063
:101BA000B9DC8091E80080FFFCCF8091E300807871
:101BB000812B8093E30080688093E300112311F070
:101BC00083E001C082E0809363010FBF81C0205891
:101BD000223008F07DC080916601909167018C3DB4
:101BE00023E0920771F583E08A838AE289834FB705
:101BF000F894DE01139620E03EE051E2E32FF0E09E
:101C000050935700E49120FF03C0E295EF703F5FCF
:101C1000EF708E2F90E0EA3010F0C79601C0C096AA
:101C20008D939D932F5F243149F74FBF8091E8003A
:101C3000877F8093E8006AE270E0CE0101961FDEA4
:101C400012C0AE014F5F5F4F609168017ED8009770
:101C500009F43EC02091E800277F2093E800BC01F2
:101C600089819A81A7DE8091E8008B778093E800D4
:101C70002FC0203869F58091E800877F8093E800C5
:101C800080915F018093F1008091E8008E778093CE
:101C9000E80040DC1DC021111BC09091660192300C
:101CA000B8F48091E800877F8093E80090935F010B
:101CB00031DC80915F01811104C08091E30087FFD6
:101CC00002C084E001C081E0809363010E948D0521
:101CD0008091E80083FF0AC08091EB0080628093CE
:101CE000EB008091E800877F8093E800AA960FB60A
:101CF000F894DEBF0FBECDBFDF91CF911F910F9142
:101D000008950895CF93809163018823A9F080916D
:101D1000E9008F709091EC0090FF02C090E801C044
:101D200090E0C92FC82B1092E9008091E80083FD54
:101D30009FDECF70C093E900CF9108956F927F929C
:101D40008F929F92AF92BF92CF92DF92EF92FF92CB
:101D50000F931F93CF93DF9300D01F92CDB7DEB7C1
:101D60007C01ADB6BEB68091E80083FF00C1F701EB
:101D7000808190E02091680130916901281739072E
:101D800009F0F5C080916501833009F497C030F403
:101D9000813071F0823009F4CEC0E9C08A3009F494
:101DA000B2C08B3009F49BC0893009F0E0C048C054
:101DB00080916401813A09F0DAC08DB69EB61A822C
:101DC000198280916601109167018B83F70140852C
:101DD00050E08DB79EB7841B950B0FB6F8949EBF4D
:101DE0000FBE8DBFEDB7FEB731966F0160E070E0BA
:101DF000CF010CD54FEF410F8E010F5F1F4F9601A2
:101E0000BE016D5F7F4FC7010E94A705F701868164
:101E10009781009721F0408550E0B601EED41092F2
:101E2000E9008091E800877F8093E80069817A81EA
:101E3000C60125DD8091E8008B778093E80038C0EB
:101E400080916401813209F092C08DB69EB60091F6
:101E50006A0110916B0170906601609067018DB707
:101E60009EB7801B910B0FB6F8949EBF0FBE8DBF1F
:101E7000EDB7FEB731966F018091E800877F8093C0
:101E8000E800B801CF0156DD8091E8008E7780939D
:101E9000E80021E0711001C020E030E0021B130BCC
:101EA0002C0D3D1D4FEF460D672DC7010E94D30538
:101EB0000FB6F8949EBE0FBE8DBE59C080916401CE
:101EC000813A09F054C08091E800877F8093E80050
:101ED0008091E80080FFFCCFF701818540C08091B0
:101EE0006401813209F043C08091E800877F8093CC
:101EF000E80010DB9091660181E0911101C080E063
:101F0000F701818734C080916401813281F580912D
:101F1000E800877F8093E800FDDA80916601909168
:101F20006701882736E0969587953A95E1F7F7019E
:101F3000958784871CC080916401813AC1F48091A7
:101F4000E800877F8093E8008091E80080FFFCCF65
:101F5000F7018485958596958795969587958093C5
:101F6000F1008091E8008E778093E800D3DA0FB615
:101F7000F894BEBE0FBEADBE0F900F900F90DF91D4
:101F8000CF911F910F91FF90EF90DF90CF90BF9076
:101F9000AF909F908F907F906F900895FC0139963D
:101FA00027E0DF011D922A95E9F721E0FC01218756
:101FB00024EF31E03587248723E0248361E0019614
:101FC0006CCA5F926F927F928F929F92AF92BF92F4
:101FD000CF92DF92EF92FF920F931F93CF93DF93F5
:101FE00000D01F92CDB7DEB77C01ADB6BEB68091F2
:101FF0006301843009F08BC08091E4009091E5008A
:10200000F701228533852817390709F480C08181BB
:102010008F708093E9008091E80085FF78C08DB6CD
:102020009EB6408550E08DB79EB7841B950B0FB6CA
:10203000F8949EBF0FBE8DBFEDB7FEB731966F010E
:102040001B821A82198260E070E0CF01DFD38E011B
:102050000F5F1F4F960140E0BE016D5F7F4FC701CC
:102060000E94A705682EF70184859585892B41F08C
:1020700021E086859785892B09F020E0722E01C02A
:10208000712CF701068117810115110589F049812D
:102090005A81B801C601A4D355245394892B09F45D
:1020A000512CF701408550E0B601C801A6D301C00C
:1020B000512C29813A81232BF1F0611004C0511079
:1020C00002C070FE18C0F7018485958597878687C2
:1020D00081818F708093E9008B8181118093F10061
:1020E00069817A8140E050E0C60181DB8091E8009F
:1020F0008E778093E8008091E4009091E500F701ED
:10210000938782870FB6F8949EBE0FBE8DBE0FB622
:10211000F894BEBE0FBEADBE0F900F900F90DF9132
:10212000CF911F910F91FF90EF90DF90CF90BF90D4
:10213000AF909F908F907F906F905F900895EE0F7B
:10214000FF1F0590F491E02D09945058BB27AA2752
:102150000ED0DCC0CDD030F0D2D020F031F49F3F93
:1021600011F41EF4C2C00EF4E095E7FBB8C0E92FED
:10217000DED080F3BA17620773078407950718F05B
:1021800071F49EF5F6C00EF4E0950B2EBA2FA02D3B
:102190000B01B90190010C01CA01A0011124FF2714
:1021A000591B99F0593F50F4503E68F11A16F0400F
:1021B000A22F232F342F4427585FF3CF469537950E
:1021C0002795A795F0405395C9F77EF41F16BA0BD3
:1021D000620B730B840BBAF09150A1F0FF0FBB1F81
:1021E000661F771F881FC2F70EC0BA0F621F731FCA
:1021F000841F48F4879577956795B795F7959E3F27
:1022000008F0B3CF9395880F08F09927EE0F9795B4
:102210008795089540D008F481E00895E89409C0B6
:1022200097FB3EF490958095709561957F4F8F4F09
:102230009F4F9923A9F0F92F96E9BB279395F6951F
:10224000879577956795B795F111F8CFFAF4BB0F9D
:1022500011F460FF1BC06F5F7F4F8F4F9F4F16C001
:10226000882311F096E911C0772321F09EE8872F8B
:10227000762F05C0662371F096E8862F70E060E047
:102280002AF09A95660F771F881FDAF7880F9695C0
:10229000879597F90895990F0008550FAA0BE0E864
:1022A000FEEF16161706E807F907C0F01216130618
:1022B000E407F50798F0621B730B840B950B39F458
:1022C0000A2661F0232B242B252B21F408950A26BE
:1022D00009F4A140A6958FEF811D811D089597F9FE
:1022E0009F6780E870E060E008959FEF80EC0895BC
:1022F00000240A94161617061806090608950024E5
:102300000A9412161306140605060895092E03945E
:10231000000C11F4882352F0BB0F40F4BF2B11F4D2
:1023200060FF04C06F5F7F4F8F4F9F4F089557FD31
:102330009058440F551F59F05F3F71F04795880F33
:1023400097FB991F61F09F3F79F0879508951216CA
:1023500013061406551FF2CF4695F1DF08C0161676
:1023600017061806991FF1CF869571056105089427
:102370000895E894BB2766277727CB0197F908953E
:10238000FA01EE0FFF1F30962105310599F1611515
:10239000710561F48038BFE39B0749F16894903878
:1023A000810561F08038BFEF9B0741F0992342F52A
:1023B000FF3FE1053105210511F1E8940894E79507
:1023C000D901AA2329F4AB2FBE2FF85FD0F310C098
:1023D000FF5F70F4A695E0F7F73950F019F0FF3A77
:1023E00038F49F779F930CD00F9007FC9058089576
:1023F0003EF07BCF60E070E080E89FE308954FE718
:102400009F775F934F933F932F939ED02F913F9150
:102410004F915F910CD105C019F40EF060CFA9CF98
:1024200064CF8DDFC8F39638C0F707F80F92E894B1
:102430002BE33AEA48EB5FE708D10F920F920F9235
:102440004DB75EB70F92C0D0E2EDF0E016D04F91DD
:102450005F91EF91FF91E595EE1FFF1F49F0FE5749
:10246000E0684427EE0F441FFA95E1F74195550BBC
:1024700032D00F9007FE26C00895DF93CF931F93AD
:102480000F93FF92EF92DF927B018C01689405C05D
:10249000DA2EEF01D8D0FE01E894A591259135916F
:1024A00045915591AEF3EF0162DEFE019701A8015F
:1024B000DA9479F7DF90EF90FF900F911F91CF9111
:1024C000DF9108959B01AC0160E070E080E89FE33C
:1024D00011C105CF77C133DFE8F39923D9F3940F06
:1024E000511DBBF39150504094F059F0882332F0C5
:1024F000660F771F881F91505040C1F79E3F5105CE
:1025000044F7880F911D9695879597F908955F3F39
:10251000ACF0983E9CF0BB27869577956795B7956C
:1025200008F4B1609395C1F7BB0F58F711F460FF41
:10253000E8CF6F5F7F4F8F4F9F4FE3CF1BCF0EF0E2
:1025400041C1D3CE6894CBCEFADEC8F39923D1F340
:10255000C6F3DF93CF931F930F93FF92C92FDD270D
:1025600088232AF02197660F771F881FDAF720E06B
:1025700030E040E85FEB9FE3883920F0803E30F0A8
:1025800021968F77E3DDEAEFF0E003C0DFDDE7E2DD
:10259000F1E073DF8B01BE01EC01FB2E6F57710977
:1025A0007595771F880B990B3BDE28E132E741E3F5
:1025B0005FE349D0AF2D9801AE01FF900F911F91BD
:1025C000CF91DF91D4DDA2CEFA01DC01AA0FBB1FAF
:1025D0009B01AC01BF5728F42227332744275078AA
:1025E0001FC0B75188F4AB2F002446953795279527
:1025F000011CA395D2F3002069F0220F331F441F62
:10260000B395DAF30DD0A1CD61307105A0E88A074A
:10261000B94630F49B01AC0166277727882790786C
:10262000309621F0208331834283538308950BD069
:102630006DCE5EDE28F063DE18F0952309F04FCEF4
:1026400054CE112497CE73DEA0F3959FD1F3950F4E
:1026500050E0551F629FF001729FBB27F00DB11D26
:10266000639FAA27F00DB11DAA1F649F6627B00DB6
:10267000A11D661F829F2227B00DA11D621F739F9F
:10268000B00DA11D621F839FA00D611D221F749FAD
:102690003327A00D611D231F849F600D211D822FF4
:1026A000762F6A2F11249F5750408AF0E1F088233B
:1026B0004AF0EE0FFF1FBB1F661F771F881F915048
:1026C0005040A9F79E3F510570F009CE53CE5F3FB1
:1026D000ECF3983EDCF3869577956795B795F7957B
:1026E000E7959F5FC1F7FE2B880F911D9695879503
:1026F00097F908950CD00ACE02DE40F0F9DD30F0F3
:1027000021F45F3F19F0EBCD511134CEEECD0FDE49
:1027100098F39923C9F35523B1F3951B550BBB27A8
:10272000AA2762177307840738F09F5F5F4F220F55
:10273000331F441FAA1FA9F333D00E2E3AF0E0E84E
:1027400030D091505040E695001CCAF729D0FE2F9A
:1027500027D0660F771F881FBB1F2617370748072C
:10276000AB07B0E809F0BB0B802DBF01FF279358E2
:102770005F4F2AF09E3F510568F0B1CDFBCD5F3F22
:10278000ECF3983EDCF3869577956795B795F795CA
:102790009F5FC9F7880F911D9695879597F90895C2
:1027A000E1E0660F771F881FBB1F6217730784075E
:1027B000BA0720F0621B730B840BBA0BEE1F88F76D
:1027C000E09508959F3F31F0915020F487957795DB
:1027D0006795B795880F911D9695879597F90895F8
:1027E000FB01DC0104C08D910190801921F441505E
:1027F0005040C8F7881B990B0895FB01DC0102C00B
:1028000001900D9241505040D8F70895DC0101C06D
:102810006D9341505040E0F70895F999FECF92BD75
:1028200081BDF89A992780B50895262FF999FECF92
:1028300092BD81BDF89A019700B4021639F01FBA13
:1028400020BD0FB6F894FA9AF99A0FBE0895F8943D
:02285000FFCFB8
:1028520000810800000110010800000000000000D3
:00000001FF
